:020000040800F2
:1000000000300020F12F0008DD130008E113000884
:10001000E5130008E9130008ED13000800000000D4
:10002000000000000000000000000000F1130008C4
:10003000F513000800000000F9130008FD13000884
:1000400041300008413000084130000841300008CC
:1000500041300008413000084130000841300008BC
:1000600041300008413000084130000841300008AC
:10007000413000084130000841300008413000089C
:100080004130000841300008413000080000000005
:1000900000000000000000000000000041300008E7
:1000A000413000084130000841300008413000086C
:1000B000413000084130000841300008413000085C
:1000C000413000084130000841300008413000084C
:1000D00041300008413000080D1400080000000005
:1000E00041300008413000084130000800000000A5
:1000F0000000000000000000000000004130000887
:100100000000000041300008413000084130000884
:1001100000000000000000000000000000000000DF
:1001200041300008413000084130000841300008EB
:100130004130000800000000000000000000000046
:100140000000000000000000000000004130000836
:1001500041300008413000084130000841300008BB
:10016000413000084130000800000000000000009D
:10017000000000000000000000000000000000007F
:1001800000000000413000080000000000000000F6
:0401900041300008F2
:1001940081F0004102E000BF83F0004330B54FEA34
:1001A40041044FEA430594EA050F08BF90EA020FA1
:1001B4001FBF54EA000C55EA020C7FEA645C7FEA34
:1001C400655C00F0E2804FEA5454D4EB5555B8BF57
:1001D4006D420CDD2C4480EA020281EA030382EAC8
:1001E400000083EA010180EA020281EA0303362D5A
:1001F40088BF30BD11F0004F4FEA01314FF4801C2D
:100204004CEA113102D0404261EB410113F0004F3E
:100214004FEA03334CEA133302D0524263EB4303F5
:1002240094EA050F00F0A780A4F10104D5F1200E93
:100234000DDB02FA0EFC22FA05F2801841F10001EE
:1002440003FA0EF2801843FA05F359410EE0A5F1C2
:1002540020050EF1200E012A03FA0EFC28BF4CF0F3
:10026400020C43FA05F3C01851EBE37101F00045A9
:1002740007D54FF0000EDCF1000C7EEB00006EEBB6
:100284000101B1F5801F1BD3B1F5001F0CD3490840
:100294005FEA30004FEA3C0C04F101044FEA445297
:1002A40012F5800F80F09A80BCF1004F08BF5FEA1E
:1002B400500C50F1000041EB045141EA050130BDFE
:1002C4005FEA4C0C404141EB010111F4801FA4F1A1
:1002D4000104E9D191F0000F04BF01460020B1FAF6
:1002E40081F308BF2033A3F10B03B3F120020CDA2E
:1002F4000C3208DD02F1140CC2F10C0201FA0CF00C
:1003040021FA02F10CE002F11402D8BFC2F1200C70
:1003140001FA02F120FA0CFCDCBF41EA0C01904026
:10032400E41AA2BF01EB0451294330BD6FEA04046F
:100334001F3C1CDA0C340EDC04F11404C4F120025A
:1003440020FA04F001FA02F340EA030021FA04F36C
:1003540045EA030130BDC4F10C04C4F1200220FAC3
:1003640002F001FA04F340EA0300294630BD21FA01
:1003740004F0294630BD94F0000F83F4801306BFC7
:1003840081F480110134013D4EE77FEA645C18BFBB
:100394007FEA655C29D094EA050F08BF90EA020F52
:1003A40005D054EA000C04BF1946104630BD91EA4A
:1003B400030F1EBF0021002030BD5FEA545C05D14D
:1003C4004000494128BF41F0004130BD14F580048C
:1003D4003CBF01F5801130BD01F0004545F0FE4100
:1003E40041F470014FF0000030BD7FEA645C1ABF35
:1003F400194610467FEA655C1CBF0B46024650EA6C
:10040400013406BF52EA033591EA030F41F4002197
:1004140030BD00BF90F0000F04BF0021704730B51D
:100424004FF4806404F132044FF000054FF00001F2
:1004340050E700BF90F0000F04BF0021704730B5B3
:100444004FF4806404F1320410F0004548BF404288
:100454004FF000013EE700BF42004FEAE2014FEADD
:1004640031014FEA02701FBF12F07F4393F07F4FB8
:1004740081F06051704732F07F4208BF704793F0BB
:100484007F4F04BF41F40021704730B54FF46074CE
:1004940001F0004521F000411CE700BF50EA0102D1
:1004A40008BF704730B54FF000050AE050EA01027A
:1004B40008BF704730B511F0004502D5404261EBEA
:1004C40041014FF4806404F132045FEA915C3FF42B
:1004D400D8AE4FF003025FEADC0C18BF03325FEAC8
:1004E400DC0C18BF033202EBDC02C2F1200300FA79
:1004F40003FC20FA02F001FA03FE40EA0E0021FA9E
:1005040002F11444BDE600BF70B54FF0FF0C4CF48B
:10051400E06C1CEA11541DBF1CEA135594EA0C0F3D
:1005240095EA0C0F00F0DEF82C4481EA030621EA78
:100534004C5123EA4C5350EA013518BF52EA0335B3
:1005440041F4801143F4801338D0A0FB02CE4FF065
:100554000005E1FB02E506F00042E0FB03E54FF095
:100564000006E1FB03569CF0000F18BF4EF0010E8D
:10057400A4F1FF04B6F5007F64F5407404D25FEA89
:100584004E0E6D4146EB060642EAC62141EA55513C
:100594004FEAC52040EA5E504FEACE2EB4F1FD0C7E
:1005A40088BFBCF5E06F1ED8BEF1004F08BF5FEAFC
:1005B400500E50F1000041EB045170BD06F00046AE
:1005C40046EA010140EA020081EA0301B4EB5C045B
:1005D400C2BFD4EB0C0541EA045170BD41F4801153
:1005E4004FF0000E013C00F3AB8014F1360FDEBF78
:1005F400002001F0004170BDC4F10004203C35DA54
:100604000C341BDC04F11404C4F1200500FA05F3D6
:1006140020FA04F001FA05F240EA020001F0004277
:1006240021F0004110EBD37021FA04F642EB0601ED
:100634005EEA430E08BF20EAD37070BDC4F10C0417
:10064400C4F1200500FA04F320FA05F001FA04F2DB
:1006540040EA020001F0004110EBD37041F10001C7
:100664005EEA430E08BF20EAD37070BDC4F12005D2
:1006740000FA05F24EEA020E20FA04F301FA05F23A
:1006840043EA020321FA04F001F0004121FA04F2E2
:1006940020EA020000EBD3705EEA430E08BF20EAB2
:1006A400D37070BD94F0000F0FD101F000464000EC
:1006B40041EB010111F4801F08BF013CF7D041EA6E
:1006C400060195F0000F18BF704703F00046520072
:1006D40043EB030313F4801F08BF013DF7D043EA43
:1006E4000603704794EA0C0F0CEA135518BF95EAF9
:1006F4000C0F0CD050EA410618BF52EA4306D1D180
:1007040081EA030101F000414FF0000070BD50EA9E
:10071400410606BF1046194652EA430619D094EA28
:100724000C0F02D150EA013613D195EA0C0F05D112
:1007340052EA03361CBF104619460AD181EA030166
:1007440001F0004141F0FE4141F470014FF000001E
:1007540070BD41F0FE4141F4780170BD70B54FF0B9
:10076400FF0C4CF4E06C1CEA11541DBF1CEA135539
:1007740094EA0C0F95EA0C0F00F0A7F8A4EB05041B
:1007840081EA030E52EA03354FEA013100F0888012
:100794004FEA03334FF0805545EA131343EA1263DB
:1007A4004FEA022245EA111545EA10654FEA002690
:1007B4000EF000419D4208BF964244F1FD0404F549
:1007C400407402D25B084FEA3202B61A65EB0305A5
:1007D4005B084FEA32024FF480104FF4002CB6EB62
:1007E400020E75EB030E22BFB61A754640EA0C00E2
:1007F4005B084FEA3202B6EB020E75EB030E22BF22
:10080400B61A754640EA5C005B084FEA3202B6EB62
:10081400020E75EB030E22BFB61A754640EA9C0021
:100824005B084FEA3202B6EB020E75EB030E22BFF1
:10083400B61A754640EADC0055EA060E18D04FEAAF
:10084400051545EA16754FEA06164FEAC30343EA4F
:1008540052734FEAC2025FEA1C1CC0D111F4801F1C
:100864000BD141EA00014FF000004FF0004CB6E715
:1008740011F4801F04BF01430020B4F1FD0C88BFB4
:10088400BCF5E06F3FF6AFAEB5EB030C04BFB6EBBF
:10089400020C5FEA500C50F1000041EB045170BDB2
:1008A4000EF0004E4EEA113114EB5C04C2BFD4EBDF
:1008B4000C0541EA045170BD41F480114FF0000E63
:1008C400013C90E645EA060E8DE60CEA135594EADF
:1008D4000C0F08BF95EA0C0F3FF43BAF94EA0C0FE2
:1008E4000AD150EA01347FF434AF95EA0C0F7FF457
:1008F40025AF104619462CE795EA0C0F06D152EAAB
:1009040003353FF4FDAE1046194622E750EA41068E
:1009140018BF52EA43067FF4C5AE50EA41047FF49F
:100924000DAF52EA43057FF4EBAE12E74FEA410202
:1009340012F5001215D211D56FF47873B3EB62522D
:1009440012D94FEAC12343F0004343EA505311F054
:10095400004F23FA02F018BF404270474FF00000E6
:10096400704750EA013005D111F0004008BF6FF024
:10097400004070474FF00000704700BF10B5054CB1
:10098400227832B9044B13B10448AFF30080012339
:10099400237010BD04000020000000008C3000080B
:1009A40008B5034B1BB103490348AFF3008008BDEE
:1009B40000000000080000208C300008F0B597B05B
:1009C40002240126102700224FF460130CA80C9473
:1009D4001394CDE91067CDE9142301F0CFFC00B1E5
:1009E400FEE703462146049300224FF480630F245C
:1009F40002256846CDE90223CDE9004501F090FFC8
:100A0400034600B1FEE74FF4815206A809930B9305
:100A1400069202F091F8044600B1FEE702F086F86F
:100A2400084BA3FB0030800902F07CFA042002F09A
:100A340093FA224621464FF0FF3002F031FA17B004
:100A4400F0BD00BFD34D62102DE9F04F2DED028BA8
:100A5400B04DB14CB14FB24AB24BB349B3482F6019
:100A640089B00026C5E90366C5E90566EE616F60D5
:100A7400AF60C4E90366C4E90566E66127606760A0
:100A8400A76000F001FD60230421A94801930396A7
:100A9400059600F085FE3146A548A44F9FEDA58A32
:100AA40000F07EFE01221146A34802F0E1F932462D
:100AB4000821A14802F0DCF9324601219E4802F0E7
:100AC400D7F9324601A99A48029601F005F9314650
:100AD400974800F065FE01220821974802F0C8F902
:100AE400042201A99248029601F0F6F890480421E4
:100AF400064600F055FE01F00FFCFFF75FFF00F023
:100B040021F900F0E7F900F005FA00F06BFA00F0C3
:100B1400A9FA00F06DF900F0E1FA00F069FB00F0C9
:100B240025FC49E001221146834802F0A1F94B4615
:100B3400322BA8BF3223002201A93046029301F0D0
:100B4400CBF80021304600F02BFED4F81880D5F8FD
:100B540018904046FFF76EFC824648468B46FFF7E6
:100B640069FC0022754BFFF7CFFC0B460246594641
:100B74005046FFF711FBFFF7D9FEA8EB0903002B42
:100B84000FFA80F840F3BC80002208216A4802F082
:100B94006FF94346322B4FF00402A8BF32230DEB0A
:100BA40002013046029301F097F80421304600F028
:100BB400F7FD002001F0D0FB7A68D7F810C07968FF
:100BC400D7F81080AB69E868EB61A1EB0808A3EBE8
:100BD4000803191A07EE901AD4F818E095ED005A94
:100BE400D4ED005A95ED024AD4ED024AC4F81CE053
:100BF4006244B8EEE76AD4F80CC0EB6007EE908A62
:100C0400AEEB0208B8EEE77A07EE902AA8EB0C02E6
:100C140006EE902AF8EEE77AF8EEE66AA5EE067A92
:100C2400D5F810E0C5F814E0E5EEA67A091A714487
:100C340006EE903AB8EEE66A06EE908ABDEEC77A02
:100C4400FDEEE77AF8EEE66A26EE046A66EEA46A3A
:100C5400B8EEC77AF8EEE77AA6EE087A2369C4F804
:100C64000C80E6EE887AA2EB0C021A4406EE901A87
:100C7400BDEEC77AB8EEE66AFDEEE77A06EE902A94
:100C8400B8EEC77AF8EEE66AF8EEE77AA5EE067AE9
:100C9400C4F810C02861E5EEA67A6361BDEEC77A98
:100CA400FDEEE77A17EE100A85ED067AC4ED067AB2
:100CB40017EE109A17EE908AFFF7BCFB00221F4B29
:100CC400FFF722FC824640468B46FFF7B3FB024601
:100CD4000B4650465946FFF761FAFFF727FEC84412
:100CE400B8F1000F0FFA80F93FF71CAF0022012181
:100CF4001148C9F1000902F0BBF80FFA89F916E7A7
:100D0400012208210C48C8F1000802F0B1F80FFADA
:100D140088F83EE77000002050000020CDCCCC3D88
:100D24005C010020DC0000209C0100202000002049
:100D34001C01002000000000000400480040354071
:100D4400FEE700BF284BF0B55A69284C42F4003244
:100D54005A615A6989B002F400320092009A5A69C1
:100D640042F480225A615B6903F4802301930022D8
:100D74004FF408614FF09040019B02F079F820464F
:100D84000022192102F074F80026002702A94FF46A
:100D9400086201234FF09040CDE90223CDE90467B6
:100DA40001F086FF192202A920460123CDE902237E
:100DB400CDE90467002501F07BFF204602A9022348
:100DC4000224CDE9024504934FF4144401F070FF6A
:100DD4000025002302A94FF09040CDE90245049379
:100DE40001F066FF09B0F0BD0010024000040048A5
:100DF400324B70B5DA69324C42F40032DA61DB69A5
:100E04008EB003F4003300930C2602210025032244
:100E1400072300980392CDE901614FF0904001A9A6
:100E24000693CDE9045501F0A1F9264B26481A682A
:100E3400264922F4804222F010021A601A6822F431
:100E440040521A601A6842F020021A601A6822F0AE
:100E540040021A601A6842F080021A601A6822F48A
:100E640040721A601A6822F440621A604023CA6809
:100E740080F8265307A94360154B079320460B9629
:100E8400CDE908550A95CDE90C5501F055F8A3684C
:100E940023F48063A360A36843F48053A36063686E
:100EA40023F490436360A36823F02A03A3602368B8
:100EB40043F0010323600EB070BD00BF0010024078
:100EC400004400406C00024000E100E000ED00E05E
:100ED40040420F000C4B0D485A690D4910B442F0C2
:100EE40001025A615B6983B003F001030193019C21
:100EF400C06800224FF4803381F810230B6003B0E4
:100F04005DF8044B704700BF0010024000ED00E0A4
:100F140000E100E01B4B1C4A10B501211B4C1A6078
:100F2400184600225C60C3E90221C3E90422C3E934
:100F340006221A6200F0CEFA50B90021114800F0DE
:100F44001FFB78B900210F4800F044FBA0B910BD85
:100F540042210F48FFF7F4FE00210A4800F010FB7D
:100F64000028EFD049210A48FFF7EAFE002105488E
:100F740000F030FB0028EAD050210548BDE81040BD
:100F8400FFF7DEBE90000020005400400E09002050
:100F9400A43000080268104B9A4200D07047D0B5C4
:100FA40088B001220323C0261227042402A90B4877
:100FB4000694CDE90423CDE9026701F079FE084BDC
:100FC400DA6942F40012DA61DB6903F40013019375
:100FD400019B08B0D0BD00BF00540040000400488D
:100FE4000010024030B51C4B1C4A1A608FB040F20E
:100FF4009F540022DC6002250324C3E90122C3E9D3
:1010040004229A61CDE9044518460C92002301227A
:101014000024002504A9CDE90623CDE90A23CDE95E
:10102400084500F0E7FB60B900220023002469466C
:1010340009480294CDE9002300F058FF30B90FB0FD
:1010440030BD4E210648FFF77BFEEDE756210448EC
:10105400FFF776FE0FB030BD5C010020002C01408C
:10106400B030000830B51B4B8FB04FF0804540F2D4
:101074009F5400221D60DC6000250324C3E9012283
:101084001A619A61CDE9044518460C9200230122A5
:101094000024002504A9CDE90623CDE90A23CDE9DE
:1010A400084500F0A7FB48B9002301A909480193AA
:1010B400039300F01BFF30B90FB030BD7121064817
:1010C400FFF73EFEF0E778210348FFF739FE0FB043
:1010D40030BD00BF9C010020B0300008F0B5404C8A
:1010E400404B236097B0002340F2E141FE222046AA
:1010F4006160C4E902322361A36100F093FA00281D
:1011040030D14FF4805304A93548049300F034FCE3
:1011140000285FD1324800F0EBFA002855D10023B3
:1011240001A92F480193039300F0E0FE002847D162
:101134000023602600271A460EA92948109312930B
:10114400CDE90E6700F0C8FD002834D10EA90422B1
:10115400234800F0C1FD50B92268224B9A420ED0B8
:1011640017B0F0BD8B212048FFF7EAFDC9E7AB219A
:101174001D48FFF7E5FD22681A4B9A42F0D108A9F1
:10118400402202230024002502264FF09040CDE99E
:101194000823CDE90A450C9601F08AFD202202239A
:1011A40008A912480C96CDE90A45CDE9082301F0B7
:1011B4007FFD17B0F0BDA6210B48FFF7C1FDC5E7C1
:1011C4009D210948FFF7BCFDB2E796210648FFF7C9
:1011D400B7FDA4E791210448FFF7B2FD9AE700BFE9
:1011E4001C01002000040040B03000080004004846
:1011F40010B51A4B1A4A1A6088B0002240F2E7343C
:10120400092118465C60C3E90221C3E904229A61FA
:1012140000F008FA88B94FF4805304A90F480493E6
:1012240000F0AAFBA0B9002301A90C480193039381
:1012340000F05CFE30B908B010BDC0210948FFF7CA
:101244007FFDE8E7CD210748FFF77AFD08B010BD20
:10125400C6210448FFF774FDE5E700BFDC00002069
:1012640000400140B030000870B50368234A93423F
:1012740088B004D0B3F1804F25D008B070BD204BA6
:101284009A6942F400629A619B694FF4407003F4D6
:101294000063019300240623012203A9039002257D
:1012A4004FF09040CDE90643CDE90452019E01F090
:1012B400FFFC22462146182001F0F2FD182001F01F
:1012C40025FE08B070BD03F504330325DA6942F046
:1012D4000102DA61DB6903F00103029300220123B6
:1012E400022403A94FF09040029E0593CDE90354D4
:1012F400CDE9062301F0DCFC08B070BD002C0140F0
:101304000010024000B50368154A934283B005D02B
:10131400144A93420FD003B05DF804FB124BDA6910
:1013240042F00202DA61DB6903F002030093009BDE
:1013340003B05DF804FB0C4B9A6942F480329A6165
:101344009B69002203F48033019311461820019B0A
:1013540001F0A6FD182003B05DF804EB01F0D6BD42
:1013640000040040004001400010024038B50C4B1E
:101374000C4A1A604FF4C07578247F214FF4007230
:101384001846C3E90154C3E9031200F09BFF00B9F6
:1013940038BD3C210448BDE83840FFF7D1BC00BF4C
:1013A400DC010020002C0040BC3000080268094B1E
:1013B4009A4200D0704703F5F23382B0DA6942F4FE
:1013C4000062DA61DB6903F400630193019B02B0FC
:1013D400704700BF002C0040704700BFFEE700BF0D
:1013E400FEE700BFFEE700BFFEE700BF704700BF97
:1013F400704700BF704700BF08B500F09FFFBDE80D
:10140400084001F0B7BD00BF704700BF1D4B00B5D9
:101414009A6942F001029A619B6983B003F0010367
:1014240001930320019B01F029FD002211466FF076
:101434000B0001F035FD002211466FF00A0001F0A7
:101444002FFD002211466FF0090001F029FD002252
:1014540011466FF0040001F023FD002211466FF0E5
:10146400030001F01DFD002211466FF0010001F0A0
:1014740017FD002211464FF0FF3003B05DF804EB76
:1014840001F00EBD00100240F8B500251746C561F5
:101494008561056200F10C051E46044600F010F853
:1014A4003946284600F00CF8204600F00FF828468C
:1014B40000F00CF83046BDE8F84000F00BB900BF6E
:1014C4000023436081600360704700BF80683C2153
:1014D40000F02EBA002850D090F8413070B503F0D7
:1014E400FF020446002B43D02368242284F84120C1
:1014F4001968626821F0010122F07062D4E90205E2
:1015040019601A619A68012D22F400429A602BD066
:10151400022D40F4044008BF4FF40062986008BFF5
:101524005A605968A569D4E9042641F0007141F470
:10153400004159603243D868E16942EA0522256ACC
:1015440020F400402943D860DA6019601968002249
:1015540041F00101202519601046626484F841506D
:10156400226384F8422070BD40F400409860D8E7BC
:1015740080F84020FFF70EFDB6E70120704700BF5A
:1015840030B490F84140E4B2202C1FD190F84020B0
:10159400012A03461AD01A68242083F841001568EA
:1015A40025F001051560156825F48055156010684F
:1015B400084310601168002541F0010111602846BC
:1015C40083F8414083F8405030BC7047022030BC5F
:1015D400704700BF90F84120D2B2202A1FD10346A1
:1015E40090F8400001281AD030B41868242483F8F5
:1015F4004140056825F001050560046824F4706421
:1016040044EA012404600168002441F001010160FE
:10161400204683F8404083F8412030BC70470220C4
:10162400704700BF002851D0F8B590F83D3004460B
:1016340003F0FF02002B33D02268254EA569E06831
:101644006168022384F83D30B24213682DD0B2F1B0
:10165400804F11D0A6F59436B2420DD006F59E36D1
:10166400B24207D006F58066B24203D006F5806622
:10167400B24209D126691DE0A66823F07003334302
:10168400266923F44073334323F080032B43136010
:10169400D062916201235361002084F83D30F8BD8B
:1016A40080F83C20FFF72EFEC6E7A768266923F0E2
:1016B40070033B4323F44073334323F080032B43F1
:1016C4001360D062916263691363E3E7012070479A
:1016D400002C01400368DA6842F00102DA601A68FB
:1016E40042F001021A600020704700BF704700BF3B
:1016F400002851D0F8B590F83D30044603F0FF02BD
:10170400002B33D02268254EA569E0686168022366
:1017140084F83D30B24213682DD0B2F1804F11D01D
:10172400A6F59436B2420DD006F59E36B24207D0E5
:1017340006F58066B24203D006F58066B24209D14E
:1017440026691DE0A66823F070033343266923F459
:101754004073334323F080032B431360D0629162C0
:1017640001235361002084F83D30F8BD80F83C200B
:10177400FFF7BCFFC6E7A768266923F070033B4365
:1017840023F44073334323F080032B431360D0626C
:10179400916263691363E3E701207047002C014001
:1017A40003680122186A02FA01F120EA010010B468
:1017B40018621A6A0D4C1143A34219620AD00C4AEA
:1017C400934207D002F58062934203D002F580620F
:1017D400934203D15A6C42F400425A641A685DF889
:1017E400044B42F0010200201A607047002C0140B3
:1017F40000400140002800F0978090F83D302DE92A
:10180400F04103F0FF0204460D46002B75D0236817
:10181400464EA169E068D4F804C0022284F83D2051
:101824009A6822F4803222F007029A60B3421A685E
:1018340068D0B3F1804F50D0A6F59436B3424CD063
:1018440006F59E36B34207D006F58066B34203D050
:1018540006F58066B34248D1266922F440723243C9
:1018640022F0800211431960D862C3F828C062696B
:101874001A634FF0010CC3F814C098689969AF69F2
:101884002A69EE69D5F800E021F44078A9681201CC
:1018940041EA0727E96842EA06220A43296A1E6ADE
:1018A40028F0030847EA080742EA0132D5F8148011
:1018B400696827F47C4727F0FC0726F0AA0641EA6A
:1018C400081140EA0E003A43314398609A610020BF
:1018D400196284F83DC0BDE8F081A66822F0700268
:1018E4003243266922F44072324322F080021143CB
:1018F4001960D862C3F828C0BBE780F83C20FFF722
:10190400B3FC84E7A768266922F07002174327F422
:1019140040773E4326F0800631431960D862C3F80D
:1019240028C062691A63A4E701207047002C0140B3
:101934000368B9B1042907D01A6A22F001021A62B5
:101944001A6A42F001021A621A6A22F010021A623A
:101954001A6A42F010021A621A6842F001021A600E
:10196400002070471A6A22F001021A621A6A42F0D1
:1019740001021A62F0E700BF90F83C30012B00F03E
:101984008E800223026870B480F83D3095680B683D
:101994005D4C402B04EA05044FF0010580F83C50EF
:1019A40094607ED03ED9702B00F0938024D8502BC5
:1019B4005DD0602B17D1146A4D68CE6824F01004F2
:1019C40014629169136A21F4704123F0A00343EA7D
:1019D400051341EA063191611362936823F07003A1
:1019E40043F0670393600023012280F83D2080F8D0
:1019F4003C3070BC18467047B3F5805F30D0B3F507
:101A0400005FF0D1D1E90153CC6891682B4343EADC
:101A1400042321F47F410B439360936843F4804390
:101A24009360E0E7102B68D00AD9202B11D0302B1B
:101A3400D9D1936823F0700343F037039360D2E75E
:101A4400002BD0D1936823F0700343F00703936015
:101A5400C9E7936823F0700343F027039360C2E758
:101A6400936823F4803323F007039360BBE7156A7C
:101A7400166A4C68C96826F001061662936925F057
:101A84000A0523F0F00343EA01132C439361146223
:101A9400936823F0700343F057039360A3E7022095
:101AA4007047156A166A4C68C96826F00106166202
:101AB400936925F00A0523F0F00343EA01132C434C
:101AC40093611462936823F0700343F047039360B7
:101AD40089E7D1E90153CC6891682B4343EA042395
:101AE40021F47F410B439360936823F4803323F004
:101AF400770343F07703936075E7936823F07003EB
:101B040043F0170393606EE78800FEFFF0B4046AA5
:101B14008F680E68184D24F001040462036A446857
:101B2400826922F4803223F0020322F07302A84275
:101B340043EA070342EA06020BD005F5A055A84282
:101B440007D005F58065A84203D005F58065A84255
:101B54000BD1CD6823F008032B43D1E9055624F4B7
:101B64004074354323F004032C4349684460826184
:101B7400F0BC416303627047002C0140F0B4046A76
:101B84008F680E68194D24F010040462026A4468D8
:101B9400836923F0807322F0200223F4E643A842F1
:101BA40042EA071243EA062317D0114DA84206D091
:101BB400104DA84203D005F58065A84206D1D1E9AD
:101BC400055624F44064354344EA85044968446076
:101BD4008361F0BC816302627047CD6822F08002A9
:101BE40042EA051222F04002E9E700BF002C01405E
:101BF4000040014000440140F0B4046A8F680E685C
:101C0400194D24F480740462026A4468C36923F49D
:101C1400803322F4007223F07303A84242EA0722BD
:101C240043EA060317D0114DA84206D0104DA8422E
:101C340003D005F58065A84206D1D1E9055624F400
:101C44004054354344EA051449684460C361F0BC18
:101C5400C16302627047CD6822F4006242EA052241
:101C640022F48062E9E700BF002C014000400140FB
:101C740000440140F0B4046A8F680E68154D24F4E2
:101C840080540462026A4468C36923F0807322F4B6
:101C9400005223F4E643A84242EA073243EA062309
:101CA4000BD005F5A055A84207D005F58065A842DC
:101CB40003D005F58065A84204D14D6924F480441D
:101CC40044EA851449684460C361F0BC016402625B
:101CD400704700BF002C0140F8B590F83C30012B50
:101CE40000F0F9800D4602230121044680F83C10DF
:101CF40080F83D30142A44D8DFE802F04A434343D5
:101D0400624343437B43434393434343AC4343438F
:101D14000B000368D5F808C0186A2F68724E20F4C7
:101D240080101862196A58685A6D22F0807221F482
:101D3400001122F4E042B34241EA0C5142EA072284
:101D440008D006F5A056B34204D006F58066B34227
:101D540040F0C3806E6920F4802040EA86206E68DB
:101D640058605A65DE651962596D286941F400614D
:101D74005965596D21F4806159655A6D42EA002212
:101D84005A650123002084F83D3084F83C00F8BDF6
:101D940029460068FFF7BAFE23682869996941F06B
:101DA40008019961996921F0040199619A690243D2
:101DB4009A610020012384F83D3084F83C00E6E772
:101DC40029460068FFF7DAFE23682869996941F417
:101DD40000619961996921F4806199619A6942EA83
:101DE40000229A610020012384F83D3084F83C00ED
:101DF400CDE729460068FFF7FFFE23682869D96903
:101E040041F00801D961D96921F00401D961DA6985
:101E14000243DA610020012384F83D3084F83C0059
:101E2400B5E729460068FFF725FF23682869D969C3
:101E340041F40061D961D96921F48061D961DA6919
:101E440042EA0022DA610020012384F83D3084F85C
:101E54003C009CE70368D5F808C0186A2F68224E36
:101E640020F480301862196A58685A6D22F480325E
:101E740021F4003122F07002B34241EA0C4142EAFB
:101E840007020BD006F5A056B34207D006F58066CC
:101E9400B34203D006F58066B34204D16E6920F4E0
:101EA400803040EA06206E6858605A659E65196263
:101EB400596D286941F008015965596D21F00401F3
:101EC40059655A6D02435A650020012384F83D3058
:101ED40084F83C005BE70220F8BD06F58066B34257
:101EE4007FF43DAF36E700BF002C014090F83C3052
:101EF400012B1BD0026870B40E4D53689468AA423B
:101F04000FD00E688D6823F0700324F080013343F2
:101F1400002429435360916080F83C40204670BC03
:101F240070474D6823F470032B43EAE702231846F5
:101F3400704700BF002C0140F0B5066816F001069A
:101F440085B022D10446D1E903204B6827680D46A9
:101F540013438969224A03430B433A4013432360E2
:101F64006268AB6868691F4922F440521A43626090
:101F7400A36823F4407303438C42A36008D01A4B34
:101F84009C421AD0194B9C4217D0002005B0F0BDDA
:101F9400304600F075F80028F7D02A68002AF4D0FB
:101FA400A969B1F5004F4FEA52030BD00344B3FBC8
:101FB400F2F39BB2E3600120E8E7684600F018F80A
:101FC4000298E8E74FF6F07103EB4003B3FBF2F33A
:101FD4001940C3F342030B43E3600120D6E700BF7B
:101FE400F369FFEF0038014000440040004800401E
:101FF4001E4A536803F00C03082B70B419D01C4B11
:102004001A4A036051681B4D1B4CC1F30311695CF0
:10201400CB4043605168C1F30221615C23FA01F1B2
:1020240081605268C2F3C222A25CD340C36070BC18
:102034007047566811490E4DD46A536816F4803FB0
:102044000CBF0A462A464FF4701191FAA1F1B1FA75
:1020540081F103F47013CB40023304F00F0101311A
:10206400B2FBF1F203FB02F3CAE700BF0010024027
:1020740000127A00E8300008F830000800093D003A
:10208400F8B9354A136B03F00303022B1BD0032B5F
:1020940059D0012B536830B403F00C0336D0082B0D
:1020A40019D02E482C4B2E4C5A685B682D49C2F32C
:1020B4000312C3F30223A25CCB5CD040D84030BCF3
:1020C400704700207047136A13F0020F0CBF002002
:1020D4004FF4004070475568204CD16A224B506839
:1020E40015F4803F18BF23464FF4701292FAA2F2FF
:1020F400B2FA82F200F47010D040023001F00F0204
:102104000132B3FBF2F300FB03F0CBE7082B21D140
:102114005568124CD16A144B506815F4803F18BFAF
:1021240023464FF4701292FAA2F2B2FA82F200F449
:102134007010D040023001F00F020132B3FBF2F311
:1021440000FB03F0BBE71368044813F0020F08BF59
:10215400002070470148B2E70010024000127A00E4
:10216400E8300008F830000800093D002DE9F04F80
:102174000C6894FAA4F24F68B2FA82F234FA02F3C9
:1021840007F1FF3E79D04FF0010C03264FF00F0802
:1021940003E0013234FA02F36FD00CFA02F3234065
:1021A400F7D0D0F8009093FAA3FABAFA8AFA93FA1D
:1021B400A3F5B5FA85F54FEA4A0A6D0006FA0AFA5C
:1021C40007FA05F529EA0A0949EA0505BEF1010FEE
:1021D400056016D8856893FAA3F9B9FA89F993FAD0
:1021E400A3FA4FEA490906FA09F925EA0909BAFAEC
:1021F4008AFA8D684FEA4A0A05FA0AF549EA05059A
:102204008560C56893FAA3F9B9FA89F993FAA3FA30
:102214004FEA490906FA09F925EA0909BAFA8AFAD4
:102224000D694FEA4A0A05FA0AF549EA0505022F3B
:10223400C560AED193FAA3FABAFA8AFABAF1070FD3
:102244004FEA1325D1F8149025DC056A93FAA3FA12
:10225400BAFA8AFA93FAA3F3B3FA83F34FEA8A0A2F
:102264009B0008FA0AFA09FA03F325EA0A052B4344
:102274000132036234FA02F38FD1BEF1010F07D8A1
:10228400CA68436802FB04F223EA0404144344606A
:102294000120BDE8F08FD0F824A095FAA5FBBBFA85
:1022A4008BFB95FAA5F3B3FA83F34FEA8B0B9B00F0
:1022B40008FA0BFB09FA03F32AEA0B0A4AEA0303B6
:1022C400436266E780B138B50446FFF76FF8D4E996
:1022D40001502369E26821682B43034342F08002E2
:1022E4000A6000204B6038BD01207047084B094A42
:1022F4001B6810B5A2FB03230446980900F012FEE4
:10230400214600224FF0FF3000F0CAFD002010BD2E
:1023140000000020D34D6210074A08B5136843F04B
:1023240010031360032000F0A9FD0020FFF7DEFF77
:10233400FFF76CF8002008BD00200240024A136831
:1023440001331360704700BFF0010020014B18688F
:10235400704700BFF001002030B583B00190FFF753
:10236400F5FF019C631C054618BF0134FFF7EEFF1F
:10237400401BA042FAD303B030BD00BF2DE9F043A7
:102384000368D90783B004464ED5C0494A6802F0B1
:102394000C02042A00F021814A6802F00C02082A87
:1023A40000F01781D4E90132B3F5803F16D0002B39
:1023B40000F0A381B3F5A02F00F0A282B34B1968FB
:1023C40021F480311960196821F480211960AF4922
:1023D400CB6A23F00F031343CB6209E0AB490B68CC
:1023E40043F480330B60CB6A23F00F031343CB62B7
:1023F400FFF7ACFF4FF400380746A44E012505E073
:10240400FFF7A4FFC01B642800F2738198FAA8F3B5
:10241400326898FAA8F3B3FA83F303F01F0305FABA
:1024240003F31342ECD023689F0742D5974A5168BF
:1024340011F00C0F00F0EC80516801F00C01082938
:1024440000F0E2802269002A00F0AC81012292FAB5
:10245400A2F3B3FA83F303F1845303F584139B00CB
:1024640016461A60FFF772FF4FF002080746874DC1
:1024740005E0FFF76BFFC01B022800F23A8198FACF
:10248400A8F32A6898FAA8F3B3FA83F303F01F03B6
:1024940006FA03F31342ECD02968F82292FAA2F266
:1024A4006369B2FA82F221F0F80193400B432B6086
:1024B40023681D072CD5A269002A00F0C0800122E0
:1024C40092FAA2F1724B714EB1FA81F10B449B0066
:1024D40015461A60FFF73AFF4FF00208074605E079
:1024E400FFF734FFC01B022800F2038198FAA8F317
:1024F40098FAA8F398FAA8F3726A98FAA8F3B3FAC8
:1025040083F303F01F0305FA03F31342E8D02368AF
:10251400580727D55D4BDA69D10040F1BD804FF0F3
:1025240000085C4D2B68DA0540F1D380E368012B89
:1025340000F05E81002B00F00881052B534B1A6AD2
:1025440000F0818122F001021A621A6A22F0040268
:102554001A6252E1B8F1000F04D04C4AD36923F057
:102564008053D361E36983B3484D6A6802F00C0277
:10257400082A60D0022B4FF0807300F06C8193FA2C
:10258400A3F3B3FA83F303F1845303F584139B0099
:1025940000221A60FFF7DAFE2C4607464FF000755A
:1025A400012605E0FFF7D2FEC01B022800F2A1803D
:1025B40095FAA5F3226895FAA5F3B3FA83F303F029
:1025C4001F0306FA03F31342ECD1002003B0BDE865
:1025D400F0834A68D2037FF5E5AE4FF4003292FAF5
:1025E400A2F12A49086892FAA2F2B2FA82F202F03F
:1025F4001F02012101FA02F202423FF415AF6268A0
:10260400002A7FF411AF16E05268D6033FF51AAFE3
:10261400022292FAA2F11D49086892FAA2F2B2FAD1
:1026240082F202F01F02012101FA02F202423FD0BB
:1026340022698A423CD0012003B0BDE8F083012521
:1026440095FAA5F1124B114EB1FA81F10B449B009E
:102654004FF002081A60FFF779FE074604E0FFF71F
:1026640075FEC01B022844D898FAA8F398FAA8F378
:1026740098FAA8F3726A98FAA8F3B3FA83F303F00A
:102684001F0305FA03F31342E9D140E700100240A7
:102694002081901000700040DA6942F08052DA61C3
:1026A400DB6903F080530193019B4FF0010838E785
:1026B4009A4DF821286891FAA1F16269B1FA81F181
:1026C40020F0F8008A4002432A601D077FF520AFFE
:1026D400F1E62B6843F480732B60FFF737FE064660
:1026E4002B68DB053FF522AFFFF730FE801B642823
:1026F400F6D9032003B0BDE8F083884D2B6823F49A
:1027040080332B602B6823F480232B60EB6A23F047
:102714000F031343EB62FFF719FE4FF4003807462B
:10272400012604E0FFF712FEC01B6428E1D898FAE2
:10273400A8F32A6898FAA8F3B3FA83F303F01F0303
:1027440006FA03F31342EDD16DE6744D2B6A23F0C0
:1027540001032B622B6A23F004032B62FFF7F6FDBF
:102764004FF002090746012614E099FAA9F36A6AB0
:1027740099FAA9F3B3FA83F303F01F0306FA03F3F8
:1027840013423FF4E7AEFFF7E1FD41F28833C01B8B
:102794009842AED899FAA9F399FAA9F3002BE4D098
:1027A4002A6AE5E7012595FAA5F3B3FA83F303F161
:1027B400845303F584139B004FF002081A60FFF75B
:1027C400C5FD564E074604E0FFF7C0FDC01B0228B6
:1027D4008FD898FAA8F3326898FAA8F3B3FA83F377
:1027E40003F01F0305FA03F31342EDD1236860E6F7
:1027F4004A4A136A43F001031362FFF7A7FD4FF03F
:1028040002090746454E012515E099FAA9F3726AB3
:1028140099FAA9F3B3FA83F303F01F0305FA03F358
:1028240013427FF497AEFFF791FD41F28833C01B4A
:1028340098423FF65EAF99FAA9F399FAA9F3002BEF
:10284400E3D0326AE4E742F004021A621A6A42F000
:1028540001021A62D1E793FAA3F3B3FA83F303F103
:10286400845303F584139B0000221A60FFF76EFD66
:102874004FF000780746012605E0FFF767FDC01B0F
:1028840002283FF636AF98FAA8F32A6898FAA8F314
:10289400B3FA83F303F01F0306FA03F31342ECD1F4
:1028A400D4E908136A680B4322F4741213436B606F
:1028B4004FF0807393FAA3F3B3FA83F303F18453D1
:1028C40003F584139B004FF000741E60FFF73EFD78
:1028D400124E0746012505E0FFF738FDC01B02280C
:1028E4003FF607AF94FAA4F3326894FAA4F3B3FA68
:1028F40083F303F01F0305FA03F31342ECD064E6F9
:1029040003F18043A3F53C33196841F48021196035
:10291400196841F48031196059E500BF0010024084
:102924007A4A136803F007038B420BD2136823F02F
:1029340007030B431360136803F007038B4201D0B2
:102944000120704703682DE9F0419F0706D5704CBC
:102954008568626822F0F0022A436260DE07054659
:102964000C4631D54168012900F0BB80022900F0F2
:10297400A580022292FAA2F3654B186892FAA2F299
:10298400B2FA82F202F01F02012303FA02F20242B7
:102994002AD05F4E736823F003030B437360FFF781
:1029A400D5FC6B68012B074641F2883875D0022BA1
:1029B40006D17DE0FFF7CAFCC01B404500F2A380AE
:1029C400736813F00C0FF5D1504A136803F0070332
:1029D400A3420CD9136823F007032343136013683D
:1029E40003F00703A34202D00120BDE8F0812B6865
:1029F400580706D54649E8684A6822F4E06202436B
:102A04004A60190707D5424A2969536823F4605379
:102A140043EAC10353603E494A6802F00C03082BA1
:102A240016D03C493A4BF0225B6892FAA2F2B2FA11
:102A340082F203F0F003D3403748384AC35C0020E5
:102A440021FA03F31360FFF751FC0020BDE8F08185
:102A54004FF4701393FAA3F302F47010B3FA83F3F0
:102A640020FA03F32E48C96AC35C0F2090FAA0F041
:102A7400B0FA80F001F00F01C1402A48D203405C53
:102A84004ABF24492849B1FBF0F101FB03F1C9E72E
:102A9400FFF75CFCC01B404535D8736803F00C039A
:102AA400042BF5D190E7FFF751FCC01B40452AD811
:102AB400736803F00C03082BF5D185E74FF000731E
:102AC40093FAA3F2124A106893FAA3F3B3FA83F3C6
:102AD40003F01F03012202FA03F303427FF459AF08
:102AE40082E74FF4003292FAA2F3094B1B6892FA80
:102AF400A2F2B2FA82F202F01F0201FA02F21A42C0
:102B04007FF447AF70E70320BDE8F0810020024066
:102B14000010024000127A00E83000080000002093
:102B2400C8300008D830000800093D00014B18687F
:102B3400704700BF000000202DE9F0430446006800
:102B4400C50383B038D5574BDA69D1005DD5564DEE
:102B54002B68DA054FF0000666D5524D61682A6A83
:102B640012F440721FD001F4407393421BD0296ABF
:102B74004FF4803321F4407093FAA3F24B4FB2FA2E
:102B840082F23A4492004FF0010CC2F800C093FA6A
:102B9400A3F3B3FA83F33B449B0000221A60286238
:102BA400C8075BD461683F4A136A23F440730B433C
:102BB40013622068002E4AD1C10706D5394AA1689C
:102BC400136B23F003030B431363820606D5354AC4
:102BD400E168136B23F010030B431363030606D55C
:102BE400304A2169D36A23F4F8730B43D36210F497
:102BF400805007D02B4A6169136B23F480730B4315
:102C04001363002003B0BDE8F083DA69264D42F077
:102C14008052DA61DB6903F080530193019B2B68D6
:102C2400DA054FF0010698D42B6843F480732B60C7
:102C3400FFF78CFB07462B68DB058ED4FFF786FB7A
:102C4400C01B6428F7D9032003B0BDE8F083D3691F
:102C5400C10723F08053D361B7D5AFE76746FFF7C9
:102C640075FB4FF00209804614E099FAA9F36A6AE9
:102C740099FAA9F3B3FA83F303F01F0307FA03F3F2
:102C840013428FD1FFF762FB41F28833A0EB0800B7
:102C94009842D8D899FAA9F399FAA9F3002BE4D069
:102CA4002A6AE5E70010024000700040008190109D
:102CB4002DE9F04F0D6883B0002D00F0C180DFF8DE
:102CC400ACC100234FF0010875E04FEA4309032625
:102CD400D0F800B006FA09F6F64302F0030706EA54
:102CE4000B0B07FA09F70AF1FF3A47EA0B07BAF1A7
:102CF400010F076040F29180C7688C683E4004FA77
:102D040009F43443C460D40051D5544EB46944F03A
:102D14000104B461B46923F0030606F1804604F0AB
:102D2400010406F58036019403F003044FEA840A93
:102D3400019FB7680F2404FA0AF9B0F1904F27EA0B
:102D440009070DD0464CA0427DD0464CA0427ED00F
:102D5400454CA0420CBF0324052404FA0AF427437B
:102D6400B760DCF800406FEA0E06D70354BF344066
:102D74004EEA0404CCF80040DCF80440970354BF46
:102D840034404EEA0404CCF80440DCF80840D7028E
:102D940054BF34404EEA0404CCF80840DCF80C403C
:102DA400920254BF34404EEA0404CCF80C40013380
:102DB40035FA03F244D008FA03F414EA050EF6D007
:102DC4004A6822F0100ABAF1020F7FF47EAF4FEA8C
:102DD400D30900EB890903F00707D9F82060BF0085
:102DE4004FF00F0A0AFA07FB26EA0B0A0E69BE40E7
:102DF40046EA0A06C9F820604FEA43090326D0F8D8
:102E040000A006FA09F6F64302F003070AEA060AE6
:102E140007FA09F747EA0A070760876807EA060A14
:102E2400CF6807FA09F747EA0A078760D0F804A0D1
:102E3400C2F300172AEA04049F40274347605BE774
:102E440003B0BDE8F08F08FA0AF4274388E74FF08F
:102E5400020909FA0AF4274382E700BF001002407E
:102E64000004004800080048000C00480004014029
:102E74000AB1816170478162704700BF074AD36815
:102E840000024FF6FF0100F4E0600B40184340F0ED
:102E9400BF6040F40030D060704700BF00ED00E038
:102EA400184B30B4DC68C4F30224C4F10705042DC4
:102EB40004F1040328BF0425062B18D9033C4FF062
:102EC400FF33A34022EA03024FF0FF33AB4021EA71
:102ED4000303A34013431B010028DBB20ADB00F108
:102EE400604000F5614080F8003330BC7047002238
:102EF4001446E9E7044A00F00F000244137630BC9C
:102F0400704700BF00ED00E0FCEC00E000F01F01A2
:102F140001234009024A8B4042F82030704700BF29
:102F240000E100E00138B0F1807F0ED2084B10B40C
:102F3400084C5860F02084F8230000220721104632
:102F44009A6019605DF8044B70470120704700BF18
:102F540010E000E000ED00E0044A136804280CBF10
:102F640043F0040323F004031360704710E000E00F
:102F7400704700BF08B5FFF7FBFF08BD1749184BA2
:102F8400184A194810B4D1F8884044F47004C1F8C0
:102F940088401C6844F001041C605C6822405A604C
:102FA4001A6822F0847222F480321A601A6822F4B9
:102FB40080221A605A6822F4FE025A60DA6A22F009
:102FC4000F02DA621A6B002410404FF0006218639B
:102FD4009C608A605DF8044B704700BF00ED00E020
:102FE400001002400CC07FF8CCFC00FFDFF834D0A6
:102FF400002103E00C4B5B58435004310B480C4B4D
:1030040042189A42F6D30B4A02E0002342F8043BEA
:10301400094B9A42F9D3FFF7B1FF00F011F8FDF71D
:1030240013FD704700300020083100080000002024
:103034000400002004000020F4010020FEE700004A
:1030440070B50D4D0D4C641BA4100026A64209D189
:103054000B4D0C4C00F018F8641BA4100026A6427B
:1030640005D170BD55F8043B98470136EEE755F895
:10307400043B98470136F2E70031000800310008AC
:103084000031000804310008F8B500BFF8BC08BCE2
:103094009E467047F8B500BFF8BC08BC9E46704712
:1030A4005372632F6932632E630000005372632FDF
:1030B40074696D2E630000005372632F7777646721
:1030C4002E63000002030405060708090A0B0C0D11
:1030D4000E0F10100102030405060708090A0B0C61
:1030E4000D0E0F1000000000000000000102030498
:0C30F400060708090000000001020304A8
:04310000A509000815
:043104008109000835
:0431080000127A0037
:0400000508002FF1CF
:00000001FF
