:020000040800F2
:100000000080012055120008790400087B040008D4
:100010007D0400087F04000881040008000000003F
:100020000000000000000000000000008304000841
:100030008504000800000000870400088904000807
:10004000A5120008A5120008A5120008A5120008B4
:10005000A5120008A5120008A5120008A5120008A4
:10006000A5120008A5120008A5120008A512000894
:10007000A5120008A5120008A5120008A512000884
:10008000A5120008A5120008A51200080000000033
:10009000000000000000000000000000A5120008A1
:1000A000A5120008A5120008A5120008A512000854
:1000B000A5120008A5120008A5120008A512000844
:1000C000A5120008A5120008A5120008A512000834
:1000D000A5120008A5120008A512000800000000E3
:1000E000A5120008A5120008A512000800000000D3
:1000F000000000000000000000000000A512000841
:1001000000000000A5120008A5120008A5120008B2
:1001100000000000000000000000000000000000DF
:10012000A5120008A5120008A5120008A5120008D3
:10013000A512000800000000000000000000000000
:10014000000000000000000000000000A5120008F0
:10015000A5120008A5120008A5120008A5120008A3
:10016000A5120008A5120008000000000000000011
:10017000000000000000000000000000000000007F
:1001800000000000A51200080000000000000000B0
:04019000A5120008AC
:1001940053B94AB9002908BF00281CBF4FF0FF31EA
:1001A4004FF0FF3000F00CB8ADF1080C6DE904CE4F
:1001B40001F09CF8DDF804E0DDE9022304B07047A7
:1001C400704700BF10B5054C227832B9044B13B107
:1001D4000448AFF300800123237010BD0C000020FD
:1001E40000000000A415000808B5034B1BB1034927
:1001F4000348AFF3008008BD000000001000002099
:10020400A4150008FEE7000000B595B00022019295
:100214002A4B196C41F0805119641B6C03F0805314
:100224000193019B029226490B6823F4404343F453
:1002340000430B600B6803F440430293029B0221CA
:10024400089101230B9310230C930E910F9210939A
:100254004FF4A8731193042312930723139308A84C
:1002640000F02AFB08BB0F2303930221049100230F
:1002740005934FF480520692079303A800F052FDB1
:10028400B8B900F0FDFD0F4BA3FB0030800900F06E
:100294003BFF042000F04EFF002211464FF0FF30D8
:1002A40000F0FEFE15B05DF804FB91210648FFF74F
:1002B400A9FF9F210448FFF7A5FF00BF00380240B3
:1002C40000700040D34D6210BC15000808B500F062
:1002D4006DFFFFF799FF00F003F800F085F8FEE7E3
:1002E400F0B58BB000240094394B1A6B42F0040231
:1002F4001A631A6B02F004020092009A01941A6BBA
:1003040042F080021A631A6B02F080020192019A91
:1003140002941A6B42F001021A631A6B02F0010292
:100324000292029A03941A6B42F002021A631A6B45
:1003340002F002020392039A04941A6B42F0080238
:100344001A631B6B03F008030493049B214E22469B
:100354002021304600F08CFE4FF4005305931E4BD1
:10036400069307941D4F05A9384600F0AFFD41F6EA
:10037400FF73059303250695079405A9384600F0F5
:10038400A5FD49F6D37305930695079405A9304650
:1003940000F09CFD20230593012306930794089401
:1003A40005A9304600F092FD4FF2F77305930695C8
:1003B400079405A90A4800F089FD042305930695CE
:1003C400079405A9074800F081FD0BB0F0BD00BFFC
:1003D40000380240000002400000211000080240E2
:1003E40000040240000C024008B50B480B4B0360AC
:1003F4004FF4E133436000238360C36003610C2244
:1004040042618361C36100F027FA00B908BD42214B
:100414000348FFF7F7FEF9E72800002000440040F6
:10042400C81500080268104B9A4200D0704700B506
:1004340087B0002300930D4A116C41F4003111641C
:10044400126C02F400320092009A0C2201920222F1
:100454000292039304930723059301A9044800F02F
:1004640035FD07B05DF804FB00440040003802404D
:10047400000002407047FEE7FEE7FEE7FEE7704734
:100484007047704708B500F0ABFE00F064FE08BD8D
:1004940010B582B000240094214B5A6C42F480427F
:1004A4005A645A6C02F480420092009A01941A6CC5
:1004B40042F080521A641B6C03F080530193019B39
:1004C400072000F0DBFD224621466FF00B0000F010
:1004D400E7FD224621466FF00A0000F0E1FD2246C6
:1004E40021466FF0090000F0DBFD224621466FF043
:1004F400040000F0D5FD224621466FF0030000F011
:10050400CFFD224621466FF0010000F0C9FD2246CE
:1005140021464FF0FF3000F0C3FD02B010BD00BF14
:10052400003802402DE9F843044601680A6922F4C0
:100534004052C36813430B610168CA6822F416422F
:1005440022F00C0283680069034360690343E06995
:1005540003431343CB6021684A6922F44072A369C0
:1005640013434B61E369B3F5004F60D02368B84A85
:10057400934200F0148102F58062934200F00F81EF
:1005840000F084FC00EB800000EB80006568AD00A7
:10059400B0FBF5F5AF4FA7FB05356D092E0100F053
:1005A40075FC00EB800000EB80006568AD00B0FBDB
:1005B400F5F900F06BFC00EB800000EB800065684F
:1005C400AD00B0FBF5F5A7FB05356D094FF06408E8
:1005D40008FB15952D013235A7FB05356D0905F08E
:1005E400F005354400F052FC00EB800000EB800085
:1005F4006668B600B0FBF6F600F048FC00EB80003D
:1006040000EB800063689B00B0FBF3F0A7FB0030B5
:10061400400908FB10684FEA081808F13208A7FBE4
:100624000837C7F3431723682F449F600DE12368FD
:10063400874A93425BD002F58062934257D000F020
:1006440025FC00EB800000EB800065686D00B0FBCA
:10065400F5F5804FA7FB05356D092E0100F016FC5A
:1006640000EB800000EB800065686D00B0FBF5F9DD
:1006740000F00CFC00EB800000EB800065686D006E
:10068400B0FBF5F5A7FB05356D094FF0640808FBD1
:100694001595ED003235A7FB05356D096D0005F4A0
:1006A400F875354400F0F2FB00EB800000EB8000AD
:1006B40066687600B0FBF6F600F0E8FB00EB80001D
:1006C40000EB800063685B00B0FBF3F3A7FB03233C
:1006D4005B0908FB13684FEAC80808F13208A7FB56
:1006E4000837C7F3421723682F449F60ADE000F03A
:1006F400DDFB00EB800000EB800065686D00B0FB63
:10070400F5F5544FA7FB05356D092E0100F0CEFB1E
:1007140000EB800000EB800065686D00B0FBF5F92C
:1007240000F0C4FB00EB800000EB800065686D0006
:10073400B0FBF5F5A7FB05356D094FF0640808FB20
:100744001595ED003235A7FB05356D096D0005F4EF
:10075400F875354400F0AAFB00EB800000EB800044
:1007640066687600B0FBF6F600F0A0FB00EB8000B4
:1007740000EB800063685B00B0FBF3F3A7FB03238B
:100784005B0908FB13684FEAC80808F13208A7FBA5
:100794000837C7F3421723682F449F6055E000F0E1
:1007A40085FB00EB800000EB80006568AD00B0FBCA
:1007B400F5F5284FA7FB05356D092E0100F076FBF2
:1007C40000EB800000EB80006568AD00B0FBF5F93C
:1007D40000F06CFB00EB800000EB80006568AD006E
:1007E400B0FBF5F5A7FB05356D094FF0640808FB70
:1007F40015952D013235A7FB05356D0905F0F0057A
:10080400354400F053FB00EB800000EB8000666889
:10081400B600B0FBF6F600F049FB00EB800000EBFD
:10082400800063689B00B0FBF3F0A7FB0030400935
:1008340008FB10684FEA081808F13208A7FB0837CC
:10084400C7F3431723682F449F60BDE8F88300BFB4
:10085400001001401F85EB5158B310B5044690F8C1
:1008640039300BB3242384F839302268D36823F455
:100874000053D3602046FFF755FE2268136923F422
:10088400904313612268536923F02A035361226859
:10089400D36843F40053D3600020E063202384F83A
:1008A400393084F83A3010BD80F83830FFF7BAFD9B
:1008B400D8E7012070470000002800F0B98170B526
:1008C40082B00446036813F0010F3BD0A64B9B682B
:1008D40003F00C03042B2CD0A34B9B6803F00C03F4
:1008E400082B21D06368B3F5803F4FD0B3F5A02F18
:1008F40052D09D4B1A6822F480321A601A6822F48E
:1009040080221A606368002B50D000F075FC054605
:10091400954B1B6813F4003F14D100F06DFC401B91
:100924006428F5D903208AE18F4B5B6813F4800FA8
:10093400D8D08D4B1B6813F4003F03D06368002BA1
:1009440000F07881236813F0020F54D0864B9B6823
:1009540013F00C0F3ED0844B9B6803F00C03082B60
:1009640033D0E368002B67D0804B01221A6000F07B
:1009740043FC05467C4B1B6813F0020F53D100F077
:100984003BFC401B0228F5D9032058E1764A136842
:1009940043F480331360B5E7734B1A6842F4802242
:1009A4001A601A6842F480321A60ABE700F024FC43
:1009B40005466D4B1B6813F4003FC3D000F01CFCCC
:1009C400401B6428F5D9032039E1674B5B6813F4B5
:1009D400800FC6D1644B1B6813F0020F03D0E36889
:1009E400012B40F02981604A136823F0F803216940
:1009F40043EAC1031360236813F0080F40D063690E
:100A040063B35B4B01221A6000F0F6FB0546564BBC
:100A14005B6F13F0020F33D100F0EEFB401B022892
:100A2400F5D903200BE1504A136823F0F803216938
:100A340043EAC1031360DEE74C4B00221A6000F066
:100A4400DBFB0546484B1B6813F0020FD3D000F0C4
:100A5400D3FB401B0228F5D90320F0E0444B0022CD
:100A64001A6000F0C9FB05463F4B5B6F13F0020FA1
:100A740006D000F0C1FB401B0228F5D90320DEE0BC
:100A8400236813F0040F78D0374B1B6C13F0805F8E
:100A940033D100230193344B1A6C42F080521A6410
:100AA4001B6C03F080530193019B0125314B1B68A0
:100AB40013F4807F23D0A368012B34D0052B38D0C6
:100AC400294B1A6F22F001021A671A6F22F00402EE
:100AD4001A67A368002B36D000F08EFB0646224B23
:100AE4001B6F13F0020F47D100F086FB801B41F20D
:100AF40088339842F3D90320A1E00025D6E71D4AA4
:100B0400136843F48073136000F076FB0646194BB8
:100B14001B6813F4807FCED100F06EFB801B02288B
:100B2400F5D903208BE0104A136F43F001031367D8
:100B3400CFE70D4B1A6F42F004021A671A6F42F0A6
:100B440001021A67C5E700F057FB0646064B1B6F08
:100B540013F0020F10D000F04FFB801B41F28833DA
:100B64009842F3D903206AE000380240000047426B
:100B7400800E474200700040E5B9A369002B5DD0A8
:100B8400314A926802F00C02082A5AD0022B17D07C
:100B94002E4B00221A6000F02FFB04462A4B1B68E0
:100BA40013F0007F42D000F027FB001B0228F5D988
:100BB400032044E0244A136C23F080531364DCE7DD
:100BC400224B00221A6000F017FB05461E4B1B68DF
:100BD40013F0007F06D000F00FFB401B0228F5D96C
:100BE40003202CE0E369226A1343626A43EA821316
:100BF400A26A5208013A43EA0243E26A43EA026300
:100C0400114A5360114B01221A6000F0F5FA0446B0
:100C14000D4B1B6813F0007F06D100F0EDFA001BAA
:100C24000228F5D903200AE0002008E0002006E0AD
:100C340001207047012002E0012000E0002002B002
:100C440070BD0120FBE700BF00380240600047424E
:100C5400314B9B6803F00C03042B58D0082B58D15C
:100C640070B52D4B5A6802F03F025B6813F4800F95
:100C74002AD0294B5868C0F3881005460026430142
:100C84001B1A66EB0604A10141EA93619801C01A9C
:100C940061EB0401CB0043EA5073C40019466019A8
:100CA40046EB01014B0243EAD05344022046194665
:100CB4003346FFF76DFA184B5B68C3F30143013306
:100CC4005B00B0FBF3F070BD134B5868C0F38810A1
:100CD4000546002643011B1A66EB0604A10141EAFE
:100CE40093619801C01A61EB0401CB0043EA50738D
:100CF400C4001946601946EB01018B0243EA905384
:100D04008402204619463346FFF742FAD3E70348E4
:100D140070470348704700BF0038024000127A0051
:100D24000024F400002800F09A8070B50446504B6B
:100D34001B6803F00F038B4208D2CBB24C4A1370EA
:100D4400136803F00F038B4240F08B80236813F089
:100D5400020F17D013F0040F04D0464A936843F4EB
:100D6400E0539360236813F0080F04D0414A93685A
:100D740043F4604393603F4A936823F0F003A06810
:100D8400034393600D46236813F0010F32D0636868
:100D9400012B21D09A1E012A25D9364A126812F055
:100DA400020F60D033498A6822F0030213438B6038
:100DB40000F022FA06462F4B9B6803F00C0362688E
:100DC400B3EB820F16D000F017FA801B41F2883380
:100DD4009842F0D9032041E0264A126812F4003FF9
:100DE400E0D101203AE0234A126812F0007FD9D101
:100DF400012033E01E4B1B6803F00F03AB4207D9FD
:100E0400EAB21B4B1A701B6803F00F03AB422CD1E0
:100E1400236813F0040F06D0164A936823F4E053B2
:100E2400E1680B439360236813F0080F07D0114A5D
:100E3400936823F46043216943EAC1039360FFF795
:100E440007FF0C4B9B68C3F303130B4AD35CD840D6
:100E54000A4B1860002000F083F9002070BD0120C7
:100E640070470120FAE70120F8E70120F6E700BF08
:100E7400003C024000380240D4150008080000205D
:100E8400014B1868704700BF0800002008B5FFF741
:100E9400F7FF044B9B68C3F38223034AD35CD84017
:100EA40008BD00BF00380240E415000808B5FFF78C
:100EB400E7FF044B9B68C3F34233034AD35CD84037
:100EC40008BD00BF00380240E415000800230F2BC2
:100ED40000F2C480F0B482B039E0042200E00022C1
:100EE400B2403A4302355E4E46F825205D4A156805
:100EF400E24302EA05064F6817F4803F01D044EA52
:100F04000506584D2E606D6802EA05064F6817F411
:100F1400003F01D044EA0506524D6E60AD6802EA16
:100F240005064F6817F4801F01D044EA05064D4DAD
:100F3400AE60ED682A404E6816F4001F01D044EA02
:100F44000502484CE26001330F2B00F28480012239
:100F54009A400C681440A242F5D14D68022D01D08C
:100F6400122D10D1DE08083650F826C003F007050C
:100F7400AF000F25BD402CEA050C0D69BD4045EAC4
:100F84000C0540F8265006685F000325BD40ED437C
:100F940005EA060C4E6806F00306BE4046EA0C0657
:100FA40006604E6806F1FF3CBCF1010F03D9112E17
:100FB40001D0122E10D1866805EA060CCE68BE4018
:100FC40046EA0C068660466826EA02024E68C6F3C4
:100FD40000169E4016434660C26815408A68BA40AF
:100FE4002A43C2604A6812F0805FACD000220192AA
:100FF4001D4A556C45F480455564526C02F4804298
:101004000192019A9D08AE1C154A52F8267003F00D
:10101400030296000F22B24027EA0207134A9042C5
:101024003FF45DAF02F5806290420ED002F580621B
:1010340090420CD002F5806290420AD002F58062A0
:1010440090423FF44AAF07224AE7012248E70222CE
:1010540046E7032244E702B0F0BC7047704700BF84
:1010640000380140003C01400038024000000240CA
:101074000AB181617047090481617047074AD368E6
:1010840023F4E0631B041B0C000200F4E06018432B
:1010940040F0BF6040F40030D060704700ED00E0E5
:1010A40030B4174BDB68C3F30223C3F10704042CE9
:1010B40028BF04241D1D062D01D9033B00E0002395
:1010C4004FF0FF3505FA04F421EA0401994005FACA
:1010D40003F322EA03031943002809DB0901C9B217
:1010E40000F1604000F5614080F8001330BC7047A7
:1010F40000F00F000901C9B2024B1954F6E700BF12
:1011040000ED00E014ED00E00138B0F1807F0AD278
:10111400064B5860064AF02182F82310002098609C
:1011240007221A6070470120704700BF10E000E0FA
:1011340000ED00E0042805D0054A136823F00403F9
:1011440013607047024A136843F004031360704746
:1011540010E000E0704708B5FFF7FCFF08BD000091
:1011640010B504460E4B18784FF47A73B3FBF0F3C2
:101174000C4A1068B0FBF3F0FFF7C6FF68B90F2CF8
:1011840001D901200AE0002221464FF0FF30FFF789
:1011940087FF054B1C60002000E0012010BD00BF4C
:1011A40000000020080000200400002008B50B4BBC
:1011B4001A6842F400721A601A6842F480621A6073
:1011C4001A6842F480721A600320FFF757FF002068
:1011D400FFF7C6FFFFF75CF9002008BD003C0240A2
:1011E400034A1168034B1B780B441360704700BF1C
:1011F4006800002000000020014B1868704700BF01
:10120400680000200F49D1F8883043F47003C1F816
:1012140088300D4B1A6842F001021A600020986071
:101224001A6822F0847222F480321A60074A5A60E3
:101234001A6822F480221A60D8604FF000638B6031
:10124400704700BF00ED00E0003802401030002479
:10125400DFF834D0002103E00C4B5B5843500431D9
:101264000B480C4B42189A42F6D30B4A02E0002377
:1012740042F8043B094B9A42F9D3FFF7C3FF00F04D
:1012840011F8FFF723F8704700800120FC150008CF
:10129400000000200C0000200C0000206C00002046
:1012A400FEE7000070B50D4D0D4C641BA410002624
:1012B400A64209D10B4D0C4C00F072F9641BA4102A
:1012C4000026A64205D170BD55F8043B9847013667
:1012D400EEE755F8043B98470136F2E7F4150008A9
:1012E400F4150008F4150008F81500082DE9F04F6E
:1012F400099F154604468E461E46002B40F0CC80BE
:101304008A42B2FA82FC4CD9BCF1000F0BD0CCF16A
:10131400200801FA0CFE20FA08F802FA0CF548EA53
:101324000E0E00FA0CF44FEA15491FFA85F8BEFBBD
:10133400F9FA210C09FB1AE30AFB08FB41EA03430F
:101344009B452AD9EB180AF1FF3004D29B4502D9F8
:10135400AAF102002B44A3EB0B03A4B2B3FBF9F2F2
:1013640009FB123302FB08F844EA0344A04516D9EA
:101374002C1902F1FF3303D2A04501D9931E2C444A
:10138400A4EB080443EA004027B124FA0CF4002338
:101394003C607B603146BDE8F08F5046DBE7134686
:1013A400EEE702B9FFDEBCF1000F2ED18B1A012645
:1013B4004FEA154EAAB2B3FBFEF8210C0EFB18330C
:1013C40008FB02F941EA0343994561D9EB1808F196
:1013D400FF3004D2994502D9A8F102002B44A3EBB3
:1013E4000903A4B2B3FBFEF10EFB11334A4344EAF2
:1013F4000344A2424ED92C1901F1FF3303D2A24275
:1014040001D98B1E2C44A41ABCE7CCF1200E02FA9D
:101414000CF521FA0EF901FA0CF320FA0EFE4EEA4D
:1014240003034FEA154800FA0CF4B9FBF8F11FFA6C
:1014340085FE08FB1192180C01FB0EF640EA0242ED
:10144400964221D9AA1801F1FF3003D2964201D95C
:10145400881E2A44921B9BB2B2FBF8F908FB19229E
:1014640009FB0EFE43EA02439E450FD9EB1809F12E
:10147400FF3604D29E4502D9A9F102062B44A3EB00
:101484000E0346EA004693E70846E3E74E46F6E7CE
:101494004046A4E70B46B6E78B4205D90FB1C7E92E
:1014A40000010026304675E7B3FA83FCBCF1000F57
:1014B4000FD18B4201D3824209D8841A61EB030E07
:1014C4000120002F6AD0C7E9004E002662E760467B
:1014D400F7E7CCF1200E03FA0CF322FA0EF521FA09
:1014E4000EF41D4301FA0CF320FA0EF10B434FEAFC
:1014F400154A00FA0CF6B4FBFAF91FFA85F80AFB50
:1015040019401C0C09FB08F144EA0044A14202FA08
:101514000CF23FD92C1909F1FF3004D2A14202D9AF
:10152400A9F102002C44641A9BB2B4FBFAF90AFB39
:10153400194409FB08F843EA044188452CD9691881
:1015440009F1FF3304D2884502D9A9F102032944E1
:1015540043EA0040A1EB0801A0FB02894945C246C9
:101564004C4602D306D1464504D2B8EB020A69EBD5
:101574000504013897B1B6EB0A0361EB040606FAD9
:101584000EFE23FA0CF34EEA030326FA0CF6C7E91F
:1015940000369AE74846C6E74B46D9E73E46F9E6A1
:1015A400F8B500BFF8BC08BC9E467047F8B500BF4C
:0815B400F8BC08BC9E4670471C
:1015BC005372632F6D61696E2E6300005372632F3B
:1015CC0075736172742E630000000000000000004F
:1015DC0001020304060708090000000001020304CD
:0815EC0004FDFF7F0100000077
:0415F400ED010008FD
:0415F800C90100081D
:0C15FC0001000000100000000024F400BA
:040000050800125588
:00000001FF
